:030000000203FFF9
:0C03FF00787FE4F6D8FD75811D020446ED
:10048B000408AAAAAAAA0116FF0114030115030165
:10049B001703011803011903011A03011B03011CA4
:1004AB0003010C00010D00010E00010F00011000F3
:0904BB00011100011200011300FF
:1002AF001204FC1204E9C2907F6412000ED290C2B5
:1002BF00917F6412000ED291C2927F6412000ED20F
:1002CF0092C2937F6412000ED293C2947F64120085
:1002DF000ED294C2957F6412000ED295C2967F649F
:1002EF0012000ED296C2977F6412000ED2977F0A29
:1002FF0012000EE4F590050CE50CC395145004C2E2
:10030F00908011E50CD3940A500AD290E50CB40AF0
:10031F0003E4F50C050DE50DC395155004C291804E
:10032F0011E50DD3940A500AD291E50DB40A03E4F6
:10033F00F50D050EE50EC395175004C2928011E519
:10034F000ED3940A500AD292E50EB40A03E4F50EC6
:10035F00050FE50FC395185004C2938011E50FD315
:10036F00940A500AD293E50FB40A03E4F50F05106F
:10037F00E510C395195004C2948011E510D3940A67
:10038F00500AD294E510B40A03E4F5100511E511F3
:10039F00C3951A5004C2958011E511D3940A500ADF
:1003AF00D295E511B40A03E4F5110512E512C395D0
:1003BF001B5004C2968011E512D3940A500AD296AC
:1003CF00E512B40A03E4F5120513E513C3951C50A7
:1003DF0005C297020305E513D3940A4003020305F0
:1003EF00D297E513640A6003020305F513020305B0
:1004FC00438901758CD8758AF0D2AFD2A9D28C22DF
:1004E900759850438920758DFD858D8BD28ED2AF3D
:0304F900D2AC2260
:03000B000204C527
:1004C500C0E0C0D0758CEC758A78E50B2401F50B7E
:1004D500E4350AF50AE43509F509E43508F508D0E7
:0404E500D0D0E03261
:03002300020026B2
:0A002600C0E0C0F0C083C082C0D06B
:1000300020980302029FC29885991DE51D644F60B8
:1000400005E51DB46F057516028079E51D645360E2
:1000500005E51DB473057516038069E51D644160EF
:1000600005E51DB461057516048059E51D644260FF
:1000700005E51DB462057516058049E51D644360FC
:1000800005E51DB463057516068039E51D6431600C
:1000900033E51D6432602DE51D64336027E51D6482
:1000A000346021E51D6435601BE51D64366015E58F
:1000B0001D6437600FE51D64386009E51D644E60FE
:1000C000037516FFE51664026009E5166404600313
:1000D000020154E51D24B26060241DB408004003F1
:1000E00002029C9000F175F003A4C58325F0C5833E
:1000F0007302010902010F02011502011B02012115
:1001000002012702012D02013375140302029975C1
:10011000150302029975170302029975180302026A
:1001200099751903020299751A03020299751B0346
:10013000020299751C030202997514037515037563
:100140001703751803751903751A03751B03751CBE
:1001500003020299E516640360030201DEE51D2433
:10016000B26060241DB40800400302029C90017B31
:1001700075F003A4C58325F0C583730201930201C2
:100180009902019F0201A50201AB0201B10201B770
:100190000201BD75140102029975150102029975DB
:1001A00017010202997518010202997519010202DC
:1001B00099751A01020299751B01020299751C01B9
:1001C00002029975140175150175170175180175ED
:1001D0001901751A01751B01751C01020299E516BA
:1001E0006405705AE51D24CFB40800400302029C48
:1001F0009001FE75F003A4C58325F0C58373020248
:100200001602021B02022002022502022A02022F0B
:10021000020234020239751406807E751506807953
:100220007517068074751806806F751906806A75D3
:100230001A068065751B068060751C06805BE516D6
:1002400064067058E51D24CFB40800504F90025B3F
:1002500075F003A4C58325F0C583730202730202FF
:100260007802027D02028202028702028C0202915F
:100270000202967514098021751509801C751709ED
:1002800080177518098012751909800D751A098073
:1002900008751B098003751C097516FF851D9930AB
:0402A0009902C29964
:0B02A400D0D0D082D083D0F0D0E03268
:03000300DFFE22FB
:10000E00AE07AF061EEF600C7FF51200037FF512F0
:05001E00000380EE224A
:10040B000202AFE493A3F8E493A34003F68001F256
:10041B0008DFF48029E493A3F85407240CC8C333F2
:10042B00C4540F4420C8834004F456800146F6DFC1
:10043B00E4800B010204081020408090048BE47EC2
:10044B00019360BCA3FF543F30E509541FFEE493B6
:10045B00A360010ECF54C025E060A840B8E493A37D
:10046B00FAE493A3F8E493A3C8C582C8CAC583CAA8
:10047B00F0A3C8C582C8CAC583CADFE9DEE780BE60
:0104C4000037
:00000001FF
